:020000040800F2
:1000000060E302207D0200088502000887020008E4
:10001000890200088B0200088D0200080000000021
:10002000000000000000000000000000C501000802
:10003000910200080000000019020008BD510208EA
:10004000970200089702000897020008970200082C
:10005000970200089702000897020008970200081C
:10006000DD250208970200089702000897020008A1
:1000700097020008970200089702000897020008FC
:1000800097020008970200089702000897020008EC
:1000900097020008970200089702000897020008DC
:1000A00097020008970200089702000897020008CC
:1000B00045520208970200089702000897020008BC
:1000C00097020008970200089702000897020008AC
:1000D00097020008D55F02089702000897020008FF
:1000E000970200089702000897020008970200088C
:1000F000970200089702000897020008970200087C
:10010000970200088142020897020008970200083F
:10011000970200089702000897020008970200085B
:10012000970200089702000897020008911F020832
:10013000970200089702000897020008970200083B
:10014000970200089702000897020008970200082B
:10015000970200089702000897020008970200081B
:10016000970200089702000897020008970200080B
:1001700097020008970200089702000897020008FB
:1001800097020008970200089702000897020008EB
:1001900097020008970200089702000897020008DB
:1001A000970200089702000897020008DFF810D0B5
:1001B00000F01AFD00480047C1C40208AFF30080F8
:1001C00060E302202A4B19680868B0E8F04F80F31A
:1001D0000988BFF36F8F4FF0000080F311887047DC
:1001E0000000000006480068006880F3088862B6D6
:1001F00061B6BFF34F8FBFF36F8F00DF00BF00BF4B
:1002000008ED00E0DFF80C00016841F470010160C6
:10021000704700BF88ED00E0EFF30980BFF36F8FF8
:10022000134B1A681EF0100F08BF20ED108A20E94A
:10023000F04F106008B44FF0A00080F31188BFF3B6
:100240004F8FBFF36F8F2DF04DFA4FF0000080F30A
:10025000118808BC19680868B0E8F04F1EF0100F4C
:1002600008BFB0EC108A80F30988BFF36F8F704726
:1002700000010020EFF3058070470000064880472A
:1002800006480047FEE7FEE7FEE7FEE7FEE7FEE77B
:10029000FEE7FEE7FEE7FEE7D1510208AD010008E8
:1002A0002DE9F05F0546002092469B4688460646AB
:1002B000814640241BE0284641464746224600F03E
:1002C000ECFA53465A46C01A914110D311461846CB
:1002D000224600F0D3FA2D1A67EB01084F4622465A
:1002E0000120002100F0CAFA17EB00094E41201E40
:1002F000A4F10104DFDC484631462A464346BDE806
:10030000F09F10B5441A0346944209D28418114450
:1003100003E011F8013D04F8013D521EF9D210BD71
:1003200040EA0104A40703D009E010C9121F10C35A
:10033000042AFAD203E011F8014B03F8014B521ED4
:10034000F9D210BDD2B201E000F8012B491EFBD258
:1003500070470022F6E710B513460A4604461946D0
:10036000FFF7F0FF204610BD421E12F8013F002BA0
:10037000FBD111F8013B02F8013B002BF9D170478A
:10038000421C10F8011B0029FBD1801A704730B5C0
:1003900004460020034600E05B1C934203D2E05C6D
:1003A000CD5C401BF8D030BD034611F8012B00F89E
:1003B000012B002AF9D11846704770B5064626F081
:1003C0001DFD046805460A220021304600F0D6FAD9
:1003D0002C6070BD2DE9FE4F804681EA0300C00FFE
:1003E0000C46009021F0004123F00045B8EB0200DC
:1003F000A94105D24046214690461C460B4602467E
:1004000023F00040104347D0270DC7F30A00C3F381
:100410000A510290401A019040286BDAC3F313008E
:1004200040F4801B0098924620B10023D2EB030ACF
:1004300063EB0B0B01985946C0F14002504600F0A7
:100440001DFA06460D4650465946019A00F035FA07
:1004500010EB08006141002487EA115284EAE77337
:100460001A4340D0009A62B3019A012A4FEA075218
:1004700015DC001B61EB02014FF0004202EA07525B
:10048000CDE90042001C41F5801132462B4600F0B8
:10049000F3FA03B0BDE8F08F40462146F9E7001BB0
:1004A00061EB0201001C41F5801300185B4120182C
:1004B000A2F5001747EB030140EAD570B6196D416C
:1004C00011E06D084FEA360645EAC0754FEA07525B
:1004D000001B61EB0201001C41F5801149084FEA45
:1004E00030000019514132462B4603B0BDE8F04FB1
:1004F00000F0B3BA0098012240000023D0EB0202C2
:1005000063EBE073009821464FEAE074B8EB00001B
:1005100061EB0401E9E783F000435BE781F0004110
:1005200058E72DE9FE4F81EA030404F0004421F06E
:10053000004100944FF0000B23F0004350EA010407
:100540005ED052EA03045BD0C3F30A54C1F30A55E8
:100550002C44A4F2F3340194A0FB0254C1F3130120
:1005600041F48011C3F3130343F4801301FB0244ED
:1005700000FB034E840A970A44EA815447EA8357F2
:10058000A4FB076802958D0A05FB07854FEA932CAB
:1005900004FB0C542705029D4FEA065847EA16371C
:1005A000B5EB08056EEB070C870E920E47EA811734
:1005B00042EA8312A7FB0201B6EB0B0164EB0004D5
:1005C0002B0D43EA0C335E1844EB1C50DA465146BF
:1005D000E7FB0201C5F313044FEA0B3343EA14535C
:1005E0004FEA0432019C43EA0603A4F10C0402948E
:1005F000009CCDE900B400F03FFA03B0BDE8F08FF5
:1006000000200146F9E72DE9F04D81EA030404F0EA
:10061000004B21F0004514464FF0000A23F0004142
:1006200050EA050220D054EA01021DD0C5F30A5752
:100630000246C5F31303C1F31300C1F30A5640F495
:10064000801543F48013A7EB0608101BD64608F26A
:10065000FD3873EB050002D308F1010801E09218A0
:100660005B41B8F1000F03DA00200146BDE8F08DD0
:1006700000204FF48011064684460EE0171B73EBF2
:10068000050705D3121B63EB050306434CEA010C77
:1006900049084FEA300092185B4150EA0107EDD15A
:1006A00052EA030012D082EA040083EA05010843FB
:1006B00005D0101BAB4106D20122002306E0002228
:1006C0004FF0004302E06FF0010253101AEB0600F6
:1006D0004CEB085110EB0A0041EB0B01BDE8F04D6B
:1006E00000F0BBB90EB5C10F80EAE0700844CA073C
:1006F000002140F233438DE80E000A460B4600F01D
:10070000BBF903B000BD0EB540F2334102910021A8
:10071000CDE900110A460B4600F0AEF903B000BD6A
:1007200070B5C1F30A5201F000450024C1F3130172
:1007300040F2FF3341F480119A4201DA002070BD8B
:1007400040F233439A42A2F2334203DC524200F0B9
:10075000A4F800E090402C43F1D0404270BDC1F3BA
:100760000A5210B5C1F3130140F2FF3341F4801176
:100770009A4201DA002010BD40F233439A42A2F2BD
:10078000334203DC524200F088F810BD904010BDA7
:1007900000F0004230F000400AD0C10D01F5607158
:1007A000C0F3160042EA0151C208400711437047E6
:1007B000002001467047000030B5041E71F10004AE
:1007C00004DB4FF00044404264EB0101141E73F15E
:1007D000000405DB1C464FF00043524263EB040368
:1007E0008B4208BF824230BD30B5041E71F1000457
:1007F00004DB4FF00044404264EB0101141E73F12E
:10080000000405DB1C464FF00043524263EB040337
:10081000994208BF904230BD01F0004330B421F04E
:10082000004150EA010206D00A0DA2F56072C1F340
:100830001301002A02DC30BC00207047440F44EA58
:10084000C104C100E01830BC00EBC25000F0CEB8CB
:1008500030B50B46014600202022012409E021FA90
:1008600002F59D4205D303FA02F5491B04FA02F58D
:100870002844151EA2F10102F1DC30BD202A04DB60
:10088000203A00FA02F1002070479140C2F12003A3
:1008900020FA03F3194390407047202A04DB203AE2
:1008A00021FA02F00021704721FA02F3D040C2F190
:1008B00020029140084319467047202A06DBCB17D7
:1008C000203A41FA02F043EAE07306E041FA02F30B
:1008D000D040C2F120029140084319467047000001
:1008E0000FB4002300B589B00CA900910B996FF0EB
:1008F0000042CB601E4B06931E4B07930423CDE9A9
:1009000001321D4A089202466B46002000F020FA90
:1009100009B05DF814FB70B586B006464FF0FF30A5
:100920000091CDE90101002015460C4604903246A5
:10093000694604A8FFF7D4FF02460498211825B1A0
:1009400008B1084600E020462860049800280DD031
:10095000002A02DD0098884208D0081B0094CDE9E7
:1009600001043246694604A8FFF7BAFF06B070BD1D
:10097000890F0008A70F0008150C00082DE9F047A3
:1009800091460F4680460446002614F8015B2DB1BF
:1009900000F03CF90068405DC007F6D12B2D02D075
:1009A0002D2D18D0641E4A463946204600F00CFB17
:1009B00027B13968A14201D1C7F8008071054FF015
:1009C00002040BD54042002803DD26F017FA04602C
:1009D000A007BDE8F08746F48066E4E70028F8DA6F
:1009E00026F00CFA04606FF00040F2E70029A8BF7F
:1009F0007047401C490008BF20F00100704710B448
:100A0000B0FA80FC00FA0CF050EA010404BF10BCFC
:100A1000704749B1CCF1200421FA04F411FA0CF129
:100A200018BF012121430843A3EB0C01CB1D4FEA62
:100A300000614FEA102042BF002010BC704700EB5D
:100A4000C35010440029A4BF10BC7047401C49008B
:100A500008BF20F0010010BC704710B5141E73F1E0
:100A6000000408DA401C41F1000192185B411A436E
:100A700001D120F0010010BD2DE9F04D92469B46BA
:100A800011B1B1FA81F202E0B0FA80F22032904660
:100A9000FFF7F4FE04460F4640EA0A0041EA0B0164
:100AA00053465A46084313D0114653EA010019D061
:100AB000C8F140025046FFF7F0FE05460E4650468C
:100AC00059464246FFF7DAFE084305D0012004E00C
:100AD00020463946BDE8F08D0020054346EAE07621
:100AE0002C4337430A986305E40AA0EB0800002270
:100AF000FD0A44EA47540A3002D500200146E9E7DE
:100B0000010510196941DDE9084500196941BDE891
:100B1000F04DA2E72DE9F04D00231A461B1A8A4139
:100B200003DB00200146BDE8F08DC1F30A52C1F39A
:100B3000130141F480154FF0000BD10702D10018CA
:100B40006D41521E0027044640F2FF11384601EB6A
:100B5000620A3E468046024600204FF48011FFF7AD
:100B60009CFEC2197141BB1846EB0100B4EB030CAB
:100B700075EB000C04D3E41A65EB000517460E462E
:100B8000241908F101006D4180463428E3DDF9198C
:100B900046EB0600091BA84103D24FF0FF32134673
:100BA00001E0002213461BEB070046EB0A51BDE8AB
:100BB000F04DFFF752BFC1F30A52C1F3130140F2E7
:100BC000FF3341F480119A4202DA00200146704757
:100BD00040F233439A42A2F2334202DC5242FFF720
:100BE0005CBEFFF74BBE0000064C074D06E0E06818
:100BF00040F0010394E8070098471034AC42F6D364
:100C0000FFF7D8FA9CCD0B08BCCD0B080048704705
:100C1000DCE80A0810B50446FFF7F8FF0068005D3D
:100C200000F0010010BD00002DE9FF4F087883B0EF
:100C30009946FF2805D0491C2D2804D00024002007
:100C400008E000200BE00124F9E700EB800003EB53
:100C50004000491C0B78FF2BF7D104B14042002320
:100C60000293147819461D462D2C01D02B2C04D14B
:100C7000521C2D2C13D000240294AA461478FF2C69
:100C80000FD00A25A3FB057801FB05814FF0000C6E
:100C900003FB0C11521CE3194AEB0101EEE701249E
:100CA000EAE7814453EA010002D019F5C87F06DA69
:100CB00003980021C0E9001107B0BDE8F08F0025BE
:100CC000AE4E2F46DFF8B882184600F0DAF9CDE9CB
:100CD0000001B9F1000002DAC9F1000400E00446A5
:100CE0000023A74A1AEB030B42EB045A12E0E00779
:100CF00007D02A46334638464146FFF712FC0746DE
:100D000088462A46334610461946FFF70AFC054630
:100D10000E466410002CEAD1DDE90001B9F1000FA4
:100D20005A46534606DAFFF76EFC3A464346FFF74B
:100D30006AFC05E0FFF7F5FB3A464346FFF7F1FB97
:100D4000029A0AB181F00041039AC2E90001B3E7B7
:100D50002DE9FF4F1F468DB0D7E901464FF0FF3810
:100D60002E2045464FF000090B90B9696D1C0E9876
:100D70008847396A824688470028F6D1BAF1FF3F92
:100D80000AD024F4D064002E11DDBAF12B0F08D064
:100D9000BAF12D0F0BD102E0404611B08DE744F4BB
:100DA0008064B9696D1C0E9888478246761E694634
:100DB000600501D52D2000E02B208DF8000001F109
:100DC000010B0DF1200809E0B9696D1C0E988847E8
:100DD00082460F9844F40074761E0560002E02DDF2
:100DE000BAF1300FF0D00B998A453ED144F080041F
:100DF00006E00F99681CA9F1010944F40074086029
:100E0000B9696D1C761E0E98884782463028F0D04E
:100E10002BE00B998A4505D1200603D444F08004C9
:100E2000761E18E0504629F083FA08B30DF113013D
:100E3000761E44F400748B4508D2AAF130000BF8FA
:100E4000010B200607D5A9F1010003E0200602D41A
:100E500009F101008146A00502D50F99681C0860C0
:100E6000B9696D1C0E9888478246002ED1DC53E08C
:100E7000002E51DDBAF1650F02D0BAF1450F4BD10A
:100E8000A00549D5B9696D1C24F44074761E0E98EE
:100E900088478246002E0CDD2B2804D0BAF12D0F96
:100EA00007D144F48074B9696D1C0E988847824656
:100EB000761EE00501D52D2100E02B2108F8011B4D
:100EC000CDF82C8021E00DF12901761E44F4007448
:100ED00088450CD2AAF1300010F0FF0088F800001D
:100EE00002D10B99884509D908F1010806E0E0050F
:100EF00001D5244801E042F20F708146B9696D1CAA
:100F00000E98884782460F980560002E04DD5046F3
:100F100029F00EFA0028D6D1F9690E988847FF20EB
:100F20008BF8000088F800000020069007904B46E0
:100F30006A4608A906A8FFF777FEA00502D46FF05D
:100F400001002AE714F0240F0AD0E00714D1DDE9EC
:100F500006123868031D3B600068C0E900120BE010
:100F6000DDE90601FFF758FC0146E00704D13868C7
:100F7000021D3A600068016028460EE70000144038
:100F80000000F03FF1D8FFFF426842B1016811F85C
:100F9000013B23B1521EC0E90012184670470121DF
:100FA000C160881E704742685AB1C368016843B97E
:100FB00083688B4205D0491E521CC0E900120020F4
:100FC00070474FF0FF3070472DE9F05F82460078A0
:100FD000002715468B460AF10104B946302801D096
:100FE0009DB113E014F8010B0127782803D058288D
:100FF00001D045B10AE00DB1102D07D10027102511
:1010000014F8010B02E0082500E00A250026B0468E
:101010000EE005FB080005FB06F1012701EB104679
:101020001FFA80F8B6F5803F00D3B94614F8010BDB
:10103000294600F018F80028EBDABBF1000F05D0C4
:101040000FB1641E00E05446CBF80040B9F1000F28
:1010500006D025F0D3FE02210160C81EBDE8F09F36
:1010600048EA0640FAE73A2800D2303820F0200259
:10107000412A01D3A2F13700884201D34FF0FF305B
:1010800070470EB540F2334202920022CDE90022B1
:101090001346FFF7F1FC03B000BD70B58C1810F8D3
:1010A000015B15F0070301D110F8013B2A1106D1AD
:1010B00010F8012B03E010F8016B01F8016B5B1EC7
:1010C000F9D12B0705D40023521E0DD401F8013BA2
:1010D000FAE710F8013BCB1A921C03E013F8015B0E
:1010E00001F8015B521EF9D5A142D8D3002070BD92
:1010F00070B5456882B00446014628460EF0C8FF28
:1011000068B123680F2B59D00BDD282B45D0B3F5E0
:10111000107F3CD0112B49D020460FF0A5FD02B026
:1011200070BD0B2B20D00E2BF6D1E3681A685968DE
:101130000D2A53D0202A31D1002928464FF480713E
:101140007DDD0FF091F8284603F0BEFF02AB846A04
:1011500043F8040D184604F0FFF8A207DFD528462F
:10116000012111F0E1FBDAE7284603F0ADFF02AD03
:1011700003466830019303F081FD55F8040D032107
:101180006C3003F0A1FD284604F0E6F8C4E7324BCA
:10119000214628461B689847C1E7E368002BBBD16E
:1011A00028464FF480710EF057FFB5E72B4B1B68B4
:1011B000002BB4D0214628469847B0E7284603F0D4
:1011C00083FF02AB43F8040D426E1468184604F026
:1011D000C3F8002CA3D02846A047A0E70029DDDDF6
:1011E0004FF4807128460FF03FF8284603F06CFF5B
:1011F00002AC866A44F8040D204604F0ADF8B1074D
:1012000003D50121284611F08FFB4FF48071284649
:101210000EF022FF284603F057FF034620461E8E9D
:101220009C6A019304F098F8304608F043FAA3074B
:101230007FF575AF2846022111F076FB6FE70EF0BF
:101240000BFF284603F040FF02AB846A43F8040D0D
:10125000068E1846E6E700BFA804002028C8022032
:101260002DE9F04FB0F90A60B0F90C708569B0F95A
:101270000E80B0F91090B0F908A087B08B461644E4
:101280001F4404464C3505F09BFFDFF8CCC0CDF879
:1012900000B04FF0000E42463946304603954B46AB
:1012A000CDF808C0CDF804E00FF0E0FB804628B987
:1012B00009F032F8404607B0BDE8F08F03F004FFB4
:1012C000244F0590514610223E1D0FF079F90DF183
:1012D00018090FCE59F804ED0EF134050FC50FCEE5
:1012E0000FC596E80F0085E80F007B6BCEF86430E1
:1012F000484604F031F87B6B40465B68984709F03C
:101300000BF8656805F05CFF404603F0DDFE846E77
:10131000049004A8059404F01FF8294648460AF0F2
:10132000F1F90028C4D0059B9C4209D0404603F047
:10133000CBFE059A8266034604A8049304F00CF8D9
:10134000404610F01DFF08F0E7FF404607B0BDE83B
:10135000F08F00BFA8040020F1100008F0B5954AF6
:101360008168436852F8216089B00446122B3FD847
:10137000DFE803F0AE3E3E3E3E0A963E3E3E3E3E37
:101380003E3E3E3E3E3E4100F569002D40F0B280BB
:10139000371F57F8040F08F0CBF804F110000FC8FE
:1013A0005B1B521B29442844013505F07FFB022DAD
:1013B000EFD132696169E3690192A2692069F76836
:1013C00000970B445B100231521B284405F0CCF807
:1013D000E3696169B2690192A26920697469009444
:1013E000194449100131023B521B284405F0BCF856
:1013F000002009B0F0BD006803F066FE856E049021
:10140000002D00F0CF80A368B0F95C70002B00F0D5
:10141000C780032B14BF0023022300EB8303406D1E
:101420001C6C08F0B5F8204608F082F808AC06A855
:1014300005F082FDB6F81CE0BDF81810BDF81C20C0
:10144000BDF81A0054F8106DBDF81E307144CEEB93
:1014500002020230023BADF81810ADF81C20B6F9BC
:101460005E10B6F96020ADF81A0006A8ADF81E307F
:1014700007F0FCF9204603F06FFF022008F002F9A4
:10148000284603F021FE08AC06A944F80C0D3A46A4
:1014900004F060FD204603F05FFF002009B0F0BDBE
:1014A000006803F011FE0490206812F005FEA8B950
:1014B000049B5D6F05B9DD6E04A803F04DFF0023AA
:1014C000284621681A4604F05DFC002009B0F0BDF2
:1014D000006811F019FD002009B0F0BDA368002BD1
:1014E00064D1049A136F002B14BF6C236823134438
:1014F0005D68E1E7B368039373680293374600F1D0
:10150000140157F804090EC901902069009509F0EB
:1015100007FC002557F8040F08F00AF8F369A269E0
:1015200021696069D21A1944284405F0F1F8F36979
:10153000A2692169E069D21A1944401B05F0E8F854
:10154000F369E26961692069D21A1944284405F0F7
:10155000F5FAF369E2696169A069D21A401B19447E
:10156000013505F0EBFA022DD4D1B06807F0E0FFA9
:10157000F16920696569E36942185B1A013A2944F7
:10158000023005F091FBF169A2696569E369501ABF
:101590005B1A01302944023A05F086FBF56908E739
:1015A00001233AE704A803F0D7FE21E7049BDD6E90
:1015B00082E700BF4C660B0800B9704730B504469F
:1015C00083B00D4605F0FCFD204603F07DFD02AB27
:1015D000456543F8040D184603F0BEFE204610F0A2
:1015E000CFFD08F099FE03B030BD00BF70B582B0EA
:1015F00018B90125284602B070BD04460D4605F015
:10160000DFFD204603F060FD866E0090684601967F
:1016100003F0A2FE294601A80AF074F800280CBFC6
:10162000012500250FD0019B9E4209D0204603F0E2
:101630004BFD019A826603466846009303F08CFED8
:10164000204610F09DFD08F067FE284602B070BDF0
:1016500000B9704730B5044683B00D4605F0B0FDC3
:10166000204603F031FD02ABA0F85C5043F8040DB6
:10167000184603F071FE204610F082FD08F04CFE83
:1016800003B030BD2DE9F043456883B00446014600
:1016900028460EF0FDFC60B323680E2B3CD074DDB1
:1016A0000F2B29D0B3F5107F20D1284603F00CFD75
:1016B000034602A8B3F9307040F8083D93F87490DF
:1016C00093F8758003F048FEE668002E75D0284632
:1016D00010F0F6FB00286BD1337A002B6FD128462F
:1016E000022111F021F9384607F0E4FF20460FF0FF
:1016F000BBFA03B0BDE8F083284603F0E5FC02AB7B
:1017000043F8040D026F1468184603F025FE002C00
:10171000EFD02846A047ECE7284603F0D5FC034667
:1017200002A840F8083D93F8747093F8756003F0D0
:1017300013FE284612F0C0FC0028D7D0E3685A6890
:10174000002AD3DD1B68202BD0D1002DCED001364E
:1017500096FBF7F307FB136605F032FD284603F00E
:10176000B3FC019090F874309E422FD280F87560DF
:1017700001A803F0F1FD284610F002FD28460521DE
:1017800011F0D2F808F0C8FDB0E70B2BAED1284617
:1017900003F09AFC02AD034645F8043D783003F0AF
:1017A0006DFA284603F0D8FD20460FF05DFAA0E759
:1017B0000021284611F0B8F898E70321F9E7012144
:1017C000284611F08DFA2DB90121F2E701A803F0A6
:1017D000C3FDD7E708F1010898FBF9F309FB13886B
:1017E00005F0EEFC284603F06FFC019090F8743091
:1017F00098450FD280F8758001A803F0ADFD28460A
:1018000010F0BEFC0521284611F08EF808F084FD8A
:101810000121CEE701A803F09FFDF7E72DE9F04F86
:10182000B0F90A50B0F90C60B0F90E70B0F9108040
:10183000B0F90890D0F818A0DFF8C0B087B00C4617
:1018400015441E4405F0BCFC2FB9DBF800309B6842
:101850001B6898470746B8F1000F47D0DBF81030F7
:1018600000946FF070441C1BB4FA84F4DFF890E02D
:10187000CDF808E00AF154026409039231463A4671
:101880004346284601940FF0F1F81C4F064638B342
:1018900003F01AFC3D1D4946102205900EF090FE03
:1018A0000FCD0DF1180C5CF804ED0EF134040FC4EB
:1018B0000FCD0FC40FCD0FC495E807000F2384E8A8
:1018C000070002253A68CEF870206046CEF87C30DA
:1018D0008EF8745003F040FD3B6830465B689847D3
:1018E00008F01AFD304607B0BDE8F08FDBF8003095
:1018F0009B681B6898478046B0E700BF60050020E2
:10190000851600082DE9F04F0546006895B010BB1C
:10191000DFF8BC9280466C68192C00F25281DFE837
:1019200014F02A00500150015001500150014100B3
:101930007A0050015001B700500150015001500190
:10194000500150015001120150015001500150014D
:1019500050015001240012F0AFFBB0FA80F84FEABA
:101960005818994B53F82890D5E7D9F818402046D5
:1019700015B0BDE8F08F286811F0C6FA286803F0AA
:10198000A3FB024614A8B2F90630B2F9021040F8DF
:10199000082D5B1A0133D36703F0DEFC204615B037
:1019A000BDE8F08FAB682C6803931F4605F008FC78
:1019B000204603F089FB14ABC56F43F8080D834E36
:1019C000184603F0C9FC08F0A7FC56F8284007F1B8
:1019D000FF3B002C00F0FE804FEA8B0101EB0B0275
:1019E000920003E0E46C002C00F0F480B4F848307E
:1019F000AB42F7D1A31808469B68002BF2D0032214
:101A0000584404EB8000114604F0CAFB0024204631
:101A100015B0BDE8F08F2C6805F0D2FB204603F02E
:101A200053FB14ABC66F43F8080D184603F094FC43
:101A300008F072FC28680FF0EDFC002800F0FC8133
:101A4000A9F10407002457F8040F07F071FD286975
:101A500069698319013B1B1B204421441A46013448
:101A600005F024F8032CEED12869D9F81030696903
:101A700001938319D9F80C200092043B0330033101
:101A80001A4604F071FD0024204615B0BDE8F08F21
:101A9000286803F019FB034614A8B3F9547040F802
:101AA0000C3D9E6CD3F8349093F8568003F054FCB0
:101AB0002C6805F085FB204603F006FB14ACD0F83B
:101AC0007CA044F8080D204603F046FC08F024FCF6
:101AD00020460FF0D3FBBDF84830286A53449844A1
:101AE000ADF8488005F08AFA0546484605F0C4FA84
:101AF00027F00303042B00F097810C2B00F06E817C
:101B0000BDF94A3080B227F00C01012900F0848130
:101B1000022900F07281BDF94820ADB2013D0138C3
:101B200003442A443046ADF84C20ADF84E3007F05F
:101B3000FFFC20464FF0FF3104F0E4FB0024204678
:101B400015B0BDE8F08F286803F0BEFA034614A86C
:101B5000B3F9547040F80C3DD3F84480D3F8349076
:101B600093F8566003F0F8FB2C6805F029FB20463B
:101B700003F0AAFA14ACD0F87CA044F8080D204673
:101B800003F0EAFB08F0C8FB20460FF077FBBDF836
:101B900048302D6A53441E444846ADF8486007F06B
:101BA000F7FC022007F06EFD404607F0C1FC21461D
:101BB00028463A4604F0CEF90024204615B0BDE888
:101BC000F08F0024D3E600BF7CC30B08CCC90220F1
:101BD00008070020502003F0A9F8044600283FF42D
:101BE000C6AEC14F50223B68002198474FEA4B03D5
:101BF00018460B935844BD4BD9F814206264A5F1E4
:101C0000060904EB800083FB09232830B9F1000F9B
:101C100009EBD9724FEA62024FEAE97E0A90484620
:101C2000B8BFE81ECEEB6303A2EBA00056F8281065
:101C300046F8284000EB030AD61A6B1C48BF05F192
:101C40000803DB1003FB09F8E164A4F8485004F131
:101C5000400140460991089303F068F80490002879
:101C600000F0C8803B68424600219847012E40F3AF
:101C70008E81BBF1010F0AF1020240F0398108990F
:101C8000CDF818B04B005B4218465B46DDF810B04B
:101C9000CDF830A057460AF1010E01FB02F24FF0D9
:101CA000800807940D958C460596824603F007043C
:101CB00002EB0A01B94548FA04F402EBE30501EB33
:101CC000E301774603F101030EF1010E6244204661
:101CD00004DD1BF8016034430BF80140F14504DDDD
:101CE0001BF8051001430BF8051005999942DDD149
:101CF000DDF830A0DDF818B0079C0D9D4B1E0E4698
:101D00009A44A5F10708B0453EDDBBF1010F0AF189
:101D1000020340F09980089DCDF814B06A00524249
:101D200005FB03F04FF0800E0694AC46934601E0AD
:101D30000AF1020306F00701D1454EFA01F100EB6A
:101D40000B050AF1FF3A374634460A4609DD002EF4
:101D5000B8BFF71D05EBE705049F7F5D3943049F7E
:101D60007955994508DD002EB8BFF41D00EBE40459
:101D700004990B5D1A430A5501364645CCEB000029
:101D8000D6D1DDF814B0069C0B9B099E5B44194626
:101D9000039B04EB810103EB83030E6304EB8303DA
:101DA00002264FEA8B008E6200EB0B02012681F8BF
:101DB0002C6004EB820223F80E6CBDF8206023F83F
:101DC000106C049E96601FFA89F500210A9ED66069
:101DD000116123F8145C23F8125C10E6BDF94E3053
:101DE0001B1A013303EBD37343F34F03ADF84A30AF
:101DF00080B288E64FEA8B0001E6BDF94820BDF9C4
:101E00004C10891A491B01EBD17102EB610212B22D
:101E1000ADF84820ADB281E6BDF84C10ADB2491B1B
:101E20000AB2ADF8482079E6BDF84E3080B21B1AF0
:101E30001BB2ADF84A3066E6286800F0ABF807F050
:101E40006BFB03F0C5FCFBE50899CDF814B00A461E
:101E50004FEA410C02FB03F2CCF1000C4FF0800E74
:101E600006948B46049826E0002E3446CBEB020104
:101E7000B8BFF41D01EBE40406F00707055D4EFA58
:101E800007F73D43055599450CDD002E3346B8BF95
:101E9000F31D02EBE30206F00704835C4EFA04F440
:101EA00023438354013646450AF1FF3A0A463FF47C
:101EB00068AF0AF10203D1450EDD002E314602EB78
:101EC0000C04B8BFF11D04EBE10106F00705445C0A
:101ED0004EFA05F52C4344540AF101018945C3DC4F
:101EE000CBEB0201CFE700BFD40600206766666631
:101EF0000898CDF830B043005B420793DDF810B08E
:101F00000D94012300FB02F2D0460AEB03014FF0CF
:101F1000800CCDF838A00F9586460696079803F0FA
:101F2000070714184CFA07F7CEEB0200C14502EB85
:101F3000E30A04EBE30400EBE300724403F1010362
:101F400088463E46059704DD1BF804502F430BF8E6
:101F50000470894501F1010104DD1BF800403443A0
:101F60000BF80040894505DD1BF80A00059C20435D
:101F70000BF80A0006989842D0D1DDF838A0DDF8B9
:101F800030B00D9C0F9D431E06469A44B9E60126CB
:101F9000B7E600BF30B583B018B90446204603B099
:101FA00030BD054605F00CF9284603F08DF80446CF
:101FB000019018B12846246C10F0E2F801A803F053
:101FC000CBF908F0A9F9204603B030BD00B970473D
:101FD00030B5044683B00D4605F0F2F8204603F014
:101FE00073F8436B0190AB4203D04563204610F079
:101FF000C7F801A803F0B0F908F08EF903B030BDBE
:1020000040B339B370B5044682B00D4605F0D8F838
:10201000204603F059F8866F00906846019603F059
:102020009BF9294601A809F06DFB78B1019B9E42FE
:1020300009D0204603F048F8019A826703466846B3
:10204000009303F089F9204610F09AF808F064F93B
:1020500002B070BD704700BF00B58BB0002101A871
:102060002422FEF778F9054B1B689B6819225B68F0
:10207000029201A898470BB05DF804FB60050020B0
:10208000F0B5274F3A68538CD46C918C156D1C4475
:10209000A4B283B06B1821B293845184ADF80010C0
:1020A000054604F023FF0646284609F06DF9013C79
:1020B0003B6834442044B3F92460ADF80260ADF8C5
:1020C000040004F061FF013E06446846ADF8066076
:1020D00011F0F8FB80B90A2D1DD0BDF804303A6824
:1020E00001331BB25384918CD46C106D1B1B091AE5
:1020F0005384918403B0F0BD284601F009FC11F02F
:102100007DFA0028E7D0284601F002FC11F076FAAB
:102110000028F1D1DFE73A68B2F92230E3E700BFE7
:10212000940400202DE9F0430F4685B0064605F0E3
:1021300047F8112F49D0132F40D0304602F0C4FF8A
:1021400004AC0346C06B44F80C3D03F0ABF9814688
:10215000204603F001F9A7F14103192B98BF20375E
:10216000B9F1000F2CDD00250DF10C08304602F00E
:10217000ABFF29460346C06B039303F0A7F904465F
:10218000404603F0E9F8204684B102F09DFF034683
:10219000029302A853B11C78A4F14103192B98BFF4
:1021A0002034E4B203F0D8F8BC4247D00135A94549
:1021B000DCD108F0B1F805B0BDE8F083002E58D1AD
:1021C00008F0AAF805B0BDE8F083002EF8D004F0BE
:1021D000F7FF304602F078FF0DF11008B0F93440F7
:1021E00048F8040D404603F0B7F808F095F804B13C
:1021F000013C04F0E5FF304602F066FF0390C06B3F
:1022000003F050F900B10138039B8442B3F9342044
:10221000A8BF0446A24228D09C86404603F09CF802
:1022200030460FF0ADFF3046042110F07DFB08F082
:1022300073F808F071F805B0BDE8F083002EBFD048
:1022400004F0BEFF304602F03FFF0390C06B03F086
:1022500029F900B10138039B8542B3F93420A8BFA6
:102260000546AA4201D09D86D7E7404603F074F8A0
:10227000DDE704F0A5FF304602F026FF0DF110085F
:10228000B0F9344048F8040D404603F065F808F012
:1022900043F804F095FF304602F016FF0390C06B40
:1022A00003F000F9013400B10138039BA042B3F9F7
:1022B0003420A8BF20468242D7D09886ADE700BF21
:1022C000F8B1F1B170B5044682B00D4604F078FF64
:1022D000204602F0F9FE02ABC66B43F8040D184627
:1022E00003F03AF82846FEF74BF82946421C3046E0
:1022F00003F056F820460FF043FF08F00DF802B047
:1023000070BD704770B5456882B00446284602F03B
:10231000DBFE02ABD0F8886043F8080D184603F0E6
:102320001BF8214628460DF0B3FE58B32368112B45
:102330005DD01CDC0E2B27D00F2B64D00B2B1ED1B5
:10234000284602F0C1FE0190C06B03F07BF8019BB0
:1023500002ADD3F888000EF0D3FC55F8043DD3F855
:10236000940002F061FC284602F0F6FF07E0262BFD
:1023700024D0B3F5107F00F09C80212B54D0204650
:102380000EF072FC02B070BDE3685A68002AF6DDF8
:102390001968A1F10903192B00F2988001227E48E7
:1023A0009A4010400028EAD1120226D4002B40F0B7
:1023B0008D800FF01FF88642E1D114E0E1680A2910
:1023C00000F08B800B2900F08C800129D7D130469A
:1023D0000BF0B4FD0028D2DB30460BF0AFFD064613
:1023E000002D40F09A80284610F0A2FCC7E7002E8E
:1023F000C5D1E3681B7A002BC1D0002DBFD0284681
:1024000000F086FABBE7284602F05EFE02AB43F816
:10241000040DD0F884201668184602F09DFF002EA7
:10242000ADD02846B047AAE7E3685A68002AA6DD7F
:102430001B680D2BA3D130460BF080FD002862DB1A
:1024400030460BF07BFD0646002DCCD004F0B8FEE4
:10245000284602F039FE0190C06B03F023F800B16A
:102460000138019A8642B2F934103346A8BF0346B8
:102470008B4201AE00F08C809386304602F06CFFF8
:1024800028460FF07DFE0421284610F04DFA07F093
:1024900043FF04F095FE284602F016FE0190D0F8A6
:1024A000880000286AD1304602F056FF07F034FF5A
:1024B00099E7E36863B31B7A28461BB1012110F04A
:1024C00033FA5FE7022110F02FFA5BE7002D3FF4AB
:1024D00059AF2846FFF726FE54E7284610F024FAA5
:1024E0004DE7002D3FF44BAF04F06AFE284602F0A2
:1024F000EBFD0190D0F8880080BB01A802F02CFF12
:1025000007F00AFF3BE7002D3FF46DAF01AEC0E7D7
:102510002846032110F008FA34E704F051FE28465B
:1025200002F0D2FD0190C06B02F0BCFF00B3013895
:10253000019BB042B3F93420A8BF3046824219D083
:10254000988601A802F008FF28460FF019FE042122
:10255000284610F0E9F907F0DFFE44E70EF0D0FB63
:10256000019B00222846C3F888200FF009FEC4E72B
:102570000020DDE701A802F0EFFEECE70EF0C0FB63
:10258000019B0022C3F8882028460FF0F9FD8AE756
:10259000304602F0E1FE7AE7020004032DE9F04F35
:1025A000B0F90A70B0F90CB08569B0F90E60B0F9F5
:1025B0001080B0F81290B0F9084087B08A461744EE
:1025C0009B446C3504F0FCFD374BCDF800A04FF078
:1025D000000A32460293594638460395CDF804A0C6
:1025E0004FF0FF330EF042FA064628B907F094FE8A
:1025F000304607B0BDE8F08F02F066FD2B4F049027
:10260000214610223D460DF0DBFF0FCDDDF810E036
:102610000EF14C048EF88C900FC40FCD0FC40FCD6B
:102620000FC495E80300BB6B84E80300CEF8843048
:1026300030468EF890A0AEF8368002F045FDB0F935
:102640003830059023B9C06C04F014FD034605989A
:10265000C26AB0F98040126802EB44041C4411F0D5
:1026600029F9054605A802F077FE2246294630469C
:1026700010F000FD04A802F06FFE02F0DFFE044639
:10268000304602F021FD034604A8DC63049302F007
:1026900063FEBB6B30465B68984707F03DFE3046F3
:1026A00007B0BDE8F08F00BF05230008A00500209B
:1026B0002DE9F041044688B0006802F005FD0346AC
:1026C00008A8D3F8886040F8103D5F8E02F044FE01
:1026D000206811F0F1FC26B9FB0740F1A480894D78
:1026E00000E0894D6368122B00F29980DFE813F057
:1026F00002019700D90097009700130097009700F8
:102700009700970097009700970097009700970011
:1027100097009700A200AB6803936B6802932B6845
:102720000193AE6A04F110000FC8009608F0F8FAA1
:102730002F1F002657F8040F06F0FAFEAB6AA269B5
:1027400021696069D21A1944304403F0E1FFAB6A91
:10275000A2692169E069D21A1944801B03F0D8FFED
:10276000AB6AE26961692069D21A1944304404F005
:10277000E5F9AB6AE2696169A069D21A801B194464
:10278000013604F0DBF9022ED4D1A86A022819DD43
:10279000A86806F0CDFEA96A20696669E369421857
:1027A0005B1A013A3144023004F07EFAA96AA26948
:1027B000E3696669501A01305B1A023A314404F049
:1027C00073FAA86A2A696169E36901922669A269B4
:1027D000EF6800970B44121A5B103044023103F08B
:1027E000C3FEE3696169AE69A86AA26901962669B8
:1027F0006F69009719444910121A0131023B3044A5
:1028000003F0B2FE686A06F093FEE2696169A369AB
:10281000501A181A0130043A043104F08FF90020DC
:1028200008B0BDE8F081394BA3F12C05002808BFA2
:102830001D4657E7206802F047FC034608A8B3F995
:10284000808040F80C3DDF6CB3F9826002F084FDBB
:10285000A08AA369216903441FFA88F2033B11444B
:102860009B1AA28B00F1020E9B1A0231023A02203F
:10287000ADF81810ADF81AE0ADF81C30ADF81E2018
:1028800006F000FF384606F083FE286A06F050FE88
:10289000206A324606A903F05DFB002008B0BDE8BF
:1028A000F08104F114010EC95C1AA4F10806761037
:1028B000E86906F1FF38651CA2EB6505C8EB040466
:1028C00006F036FEB8F1000F4FEA6404A7DBAF1B39
:1028D000013745443F1B26442A4639192046013416
:1028E00003F016FFA64205F1FF35F5D1002008B030
:1028F000BDE8F081206810F007FB002008B0BDE8BB
:10290000F08100BF780700204C070020D00700208E
:102910002DE9F04F07469BB004F052FC384602F018
:10292000D3FB0D9038460EF0F5FF0D9B0690DD6B46
:1029300093F89020B3F9364093F88C800B92284698
:10294000B3F934A002F0AEFD0D9A064692E80300FA
:102950000FAB83E803000A93936D1393D36D149325
:10296000136E1593536E1693136F1793536F106D69
:10297000516D1893D36C119012910793916FD2F807
:10298000943005930DA81991B2F88EB0B2F98290E7
:1029900002F0E2FC38460EF0ABFE02F095FB024678
:1029A0001AA8B2F9001040F8382DB2F902200991A6
:1029B000089202F0D1FC0A9B089A099918465242E3
:1029C000494205F053FF18F0020F17BFBDF83E3023
:1029D000BDF942301B1B1BB23846ADF83E300EF03D
:1029E00087FE019401460224069800900294BDF9E6
:1029F0003E30BDF93C2000200BF02EFA18F0010FFC
:102A0000044679D14FF000085EB14146284602F0F5
:102A10005DFD08F10108014620460AF0F5FD464536
:102A2000F3D1002611AD55F8262031462046013657
:102A30000BF0C8FC032EF6D1002614AD55F8262065
:102A40003146204601360BF01BFF032EF6D100263F
:102A500017AD55F826203146204601360BF094FD7F
:102A6000032EF6D1059B4BBB594620460BF050FD7B
:102A7000079920460BF0CAFC494620460BF0E6FEBB
:102A8000204610F055F9394620460BF05DFD5146C1
:102A900020460BF0F5FD012138460FF045FF384682
:102AA00002F012FB03460DA8C3F888400D9302F014
:102AB00053FC07F031FC1BB0BDE8F08F184602F064
:102AC00003FB06880E9005464FF0000886B105EB23
:102AD000D80308F007029B7843FA02F2414602F05D
:102AE0000102204608F101080BF0AEFCB045EED122
:102AF0000EA802F031FCB7E70B990BF08BFD01211A
:102B000020460BF029FC7DE700B9704730B504463C
:102B100083B00D4604F054FB204602F0D5FA90F83D
:102B20008C30019003F0FE046DB99C420FD0D0F8B8
:102B3000885080F88C4001A802F00EFC75B907F0AF
:102B4000EBFB03B030BD44F001049C42EFD101A87F
:102B500002F002FC07F0E0FB03B030BD04F001011D
:102B600028460BF0F9FBEAE700B970472DE9F0437E
:102B7000054683B00C4604F023FB284602F0A4FA75
:102B800003460090C06CD3F8887004F073FA804656
:102B900002A850F8083DDC6402F0DEFB284602F093
:102BA00093FAB0F93830019023B9C06C04F062FA9E
:102BB00003460198C26AB0F98060126802EB4606CB
:102BC0001E4410F077FE814601A802F0C5FB28469E
:102BD0003246494610F04EFA28460FF0D1FA27B98E
:102BE00007F09AFB03B0BDE8F083204604F042FAF8
:102BF000804510D004F0E4FA284602F065FA01900E
:102C0000D0F8880080B901A802F0A6FB07F084FB89
:102C10002846FFF77DFE214638460BF0F7FB07F00C
:102C20007BFB03B0BDE8F0830EF06AF8019B002245
:102C3000C3F8882028460FF0A3FAE4E700B97047EC
:102C400030B5044683B00D4604F0BAFA204602F0CF
:102C50003BFA02ABD0F8884043F8040DA0F88E5040
:102C6000184602F079FB1CB907F056FB03B030BDE3
:102C7000294620460BF04CFC07F04EFB03B030BD5C
:102C800070B5044682B010B9204602B070BD0D4642
:102C900004F096FA204602F017FA034602A8D3F889
:102CA0008860B3F9364040F8043DDD8602F054FBFD
:102CB00026B907F031FB204602B070BD30460EF059
:102CC00029FE2A460146304610F0D4F9F1E700BF4C
:102CD00000B9704730B5044683B00D4604F070FA71
:102CE000204602F0F1F990F890300190AB4210D0FC
:102CF000D0F8884080F8905001A802F02DFB1CB954
:102D000007F00AFB03B030BD294620460BF082FCD9
:102D1000F6E701A802F020FB07F0FEFA03B030BD91
:102D200030B5044683B010B9204603B030BD0D461F
:102D300004F046FA204602F0C7F990F88C30019072
:102D4000C3F340045DB903F0FD0380F88C3001A8A3
:102D500002F002FB07F0E0FA204603B030BD43F07A
:102D60000203F2E730B583B00C4602F0ADF902ADD4
:102D7000214645F8040DC06B02F0A8FB0446284626
:102D800002F0EAFA20460CB102F09EF903B030BD21
:102D90002DE9F04F44688BB00546204611F08CF9C0
:102DA0002946064620460DF073F9002838D02B68D6
:102DB0000F2B60D037DC0B2B4AD00E2B55D1002EB9
:102DC00053D0EB685A68002A4FDDD3F80080A8F191
:102DD0000903192B06D80121C24A01FA03F31A404C
:102DE000002A42D1E4B104F0EBF9204602F06CF97C
:102DF0000AAE034646F8180D876D93F854A0D3F831
:102E00003490DD6C304602F0A7FA002F00F0E1802C
:102E100041462046B84720460FF0B2F907F07CFA49
:102E20000BB0BDE8F08F40F21312934228D0B3F5F7
:102E3000107F1AD1EB68002B00F098801A7A002AD4
:102E400051D0002C40D1204601210FF06DFD0CE047
:102E5000204602F039F90AAC034644F8043D343008
:102E600001F00CFF204602F077FA28460DF0FCFE38
:102E70000BB0BDE8F08F2046012119F06FFCCFE7C1
:102E800020460FF0B9FE204602F01EF90AAE46F8C1
:102E9000040D90F8563083F0040380F85630304625
:102EA00002F05AFA0021204619F058FC204602F0A0
:102EB0000BF900210346D0F8840009930FF032FE8D
:102EC000304602F049FAD0E71E6804F079F920464E
:102ED00002F0FAF80790406B50B907A802F03CFAEC
:102EE00007F01AFAAFE7204602210FF01DFDBCE7FC
:102EF00002F0EAF8079B0690986E06F049FB8046C0
:102F000020460EF007FD0746069804F077F8079A6A
:102F1000136E03F00303012B814600F0E781022BBF
:102F200040F0DD813B1A013303EBD373A6EB63065C
:102F3000069808F00FFA002E0746C0F2F781B14557
:102F400019DA204602F0C0F80890406B002840F0E3
:102F5000D38108A802F000FA06A802F0FDF9404665
:102F600006F016FB20460FF00BF9B6E720460321CA
:102F70000FF0DAFC79E702463146069808F066F968
:102F80000646204602F0A0F80890406B0028E0D0EA
:102F900002F09AF8099008F0DDF90899B1F9387053
:102FA00091F854E0CA6C26EAE673BEF1000F0CBF3C
:102FB0003E467E1EB342A8BF33469842A8BF18467D
:102FC000824200D0C86400230B6509A802F0C4F94E
:102FD000BFE7A8F10803162B00F2E680DFE813F044
:102FE0009F00E400E400E400E400E400E400E40006
:102FF000BB00840075004700E400E400E400E40046
:10300000E400E400E400E400E40038001700204697
:1030100002F05AF803460AA85D6B40F8083DDF6CE1
:1030200002F09AF9002D3FF4F6AE284602F04CF873
:1030300039460646099007F03FF805463046FDF749
:103040009FF98542C0F0DF8109A802F085F9E2E628
:10305000204602F039F8BAF1010F049040F0858162
:10306000002380F85430304602F076F9D3E6B9F107
:10307000000F3FF4D0AE484602F026F82946064637
:10308000099007F019F80644304606F0B1FF002316
:1030900005468DF82230ADF8203006F0D7FF013D0F
:1030A0000746ADB2284606F0D1FF8742CCD129466B
:1030B00008A806F08BFF08A93A463046FDF721F92B
:1030C000052120460FF030FCBEE7204601F0FCFF52
:1030D0000890406B002840F0A68108A802F03CF957
:1030E00099E600BF13000403B9F1000F3FF493AE5B
:1030F000484601F0E9FF29460646099006F0DCFF44
:103100000644304606F074FF002305468DF8223051
:10311000ADF8203006F09AFF01350746C1E7002DD3
:103120003FF479AE204601F0CFFF0890406B0028B5
:1031300040F0968108A802F00FF9204601F0C4FF84
:10314000034608A85D6BDF6C089302F005F9002DBB
:103150003FF461AE69E7204601F0B6FF0890406B8E
:103160000028BAD001F0B0FF099008F0F3F80899F0
:10317000B1F9386091F85470CA6C6B1E23EAE3739E
:10318000002F0CBF3546751EAB42A8BF2B46984298
:10319000A8BF184682424FF0000318BFC8640B65F1
:1031A00009A802F0D9F898E7B8F11F0F7FF733AEFE
:1031B000BAF1000F40F00581204601F085FFB0F91B
:1031C00038300590002B814607DD406B002840F029
:1031D0006D8107469F4280F265810DF128091FFA33
:1031E00088F31E46019359F8143DDB6C039348465F
:1031F00002F0B2F8304606F029FF8346204601F07F
:1032000063FF0690406B002840F0938106460AA8B1
:103210000BEB060350F8102D568F01339E1B02F066
:103220009BF8002E40F38281204601F04DFF0AAF4B
:10323000B0F83A8047F8080D06F11003D0F834A032
:103240009844384602F088F84146504601F04EFF57
:10325000029000283FF4DFADBAF1000F00F0588172
:1032600009AE204601F030FF029B0890A0F83A809A
:103270004363384602F070F8204601F025FF03460C
:103280004846D3F83480059302F066F8404601F0D2
:103290001BFF03990990804606F00EFF80444046CC
:1032A000FDF76EF84146421C08EB0B00FDF729F8CC
:1032B0000199404606F08AFE304602F04DF805219D
:1032C00020460FF031FB204601F0FEFE0890406BD7
:1032D000002840F0F980384602F03EF89BE5D36ABA
:1032E000526E1B6801321344F61A21E6536E3F1AE0
:1032F0000133FB1AF61A1BE601F0E6FE099008F00E
:1033000029F80899B1F9383091F85460CA6C002E48
:1033100018BF013B27EAE777BB42A8BF3B4698426C
:10332000A8BF184682427FF44DAE4CE6204601F01D
:10333000CBFE0890406B00283FF40BAE01F0C4FEBA
:10334000099008F007F80899B1F9383091F85460FD
:10335000CA6C002E18BF013B03EAE3739842A8BF72
:10336000184682427FF42EAE2DE6012380F85430B9
:10337000204601F0A9FE0890406BF0B101F0A4FED8
:10338000099007F0E7FF0899B1F9383091F85470C7
:10339000CA6C002F18BF013B25EAE575AB42A8BFF8
:1033A0002B469842A8BF184682424FF0000318BF30
:1033B000C8640B6509A801F0CFFF08A801F0CCFF95
:1033C00051E6204601F080FE0AAF466B47F8080D33
:1033D00003463846D3F84C9001F0BEFF002E3FF470
:1033E000EBAE304601F070FE49460746099006F004
:1033F00063FE06463846FCF7C3FF864220D309A881
:1034000001F0AAFFD8E63544284606F001FE291847
:103410002846FCF7C9FF09A801F09EFF05212046B8
:103420000FF082FAF7E401F04FFE099007F092FFE7
:1034300008996B1CB1F9386091F85470CA6C9DE61C
:103440003E44304606F0E4FD31183046FCF7ACFF50
:1034500009A801F081FF052120460FF065FAABE6CF
:1034600001F032FE099007F075FF0899B1F9386054
:1034700091F85470CA6C6B1E23EAE373002F0CBFE3
:103480003546751EAB42A8BF2B469842A8BF1846CA
:1034900082424FF0000318BFC8640B6509A801F011
:1034A0005BFF47E605A801F057FFB4E401F00CFE0E
:1034B0000AAE46F8040D07F04DFF0746304601F00E
:1034C0004BFFB9F9383085E601F0FEFD099007F0B1
:1034D00041FF0899B1F938E091F854C0CA6C6B1CEF
:1034E00023EAE373BCF1000F0CBF7546AEF1010592
:1034F000AB42A8BF2B469842A8BF184690424FF057
:10350000000318BFC8640B65304601F025FFE2E6F2
:1035100001F0DAFD0AAE0D4B46F8040D51461B686A
:1035200042469847304601F017FF9AE609AE08AFC9
:10353000A2E601F0C9FD0AAF47F80C0DFCF720FF29
:103540000646384601F008FF61E600BFD4060020B9
:103550002DE9F04FB0F90A60B0F90CB08569B0F907
:103560000E70B0F910A0D0F814808BB08946B0F975
:103570000810059116449B440446603503F020FE74
:10358000DFF838E1CDF800904FF4805C59463046C2
:10359000039553463A46CDF808E0CDF804C00DF047
:1035A00065FA30B906F0B8FE002738460BB0BDE822
:1035B000F08F074601F088FD3E4E059907901022D6
:1035C0000CF0FEFF0FCEDDF81CE00EF160050FC51C
:1035D0000FCE0FC533682B6018F1010318BF01230C
:1035E000B8F1000FCCBF0FFA88F84FF008084FF081
:1035F00001028EF888304FF000038EF85520AEF8A7
:103600003880AEF83A30CEF8343007A8CCBF08EB9B
:103610000205092501F0A0FE384601F055FD0AAE6D
:103620000346428F46F8080DD3F8348015443046DF
:1036300001F092FE2946404601F058FD8246A8B3AB
:10364000B8F1000F23D00DF12409384601F03CFDFC
:10365000034630465D87C3F834A0089301F07CFE32
:1036600006F05AFE648A03F0ABFD384601F02CFDEB
:10367000099018B1046638460EF082FD484601F004
:103680006BFE06F049FE38460BB0BDE8F08F01F046
:103690001BFD0DF12809084B49F8040D41461B6834
:1036A0002A469847484601F057FECEE738460DF0C7
:1036B00027FB77E7DC050020D4060020912D0008C9
:1036C00000B9704770B5044682B00D4603F078FD2E
:1036D000204601F0F9FC02AE034646F8043D85663B
:1036E00020460EF04DFD304601F036FE06F014FE89
:1036F00002B070BD00B97047AFF300802DE9F04F04
:1037000004468BB00F4603F05BFD204601F0DCFC65
:103710000AAE024646F8180D456BB2F938803046BD
:1037200001F01AFE002F00F0AA80002D7FD1A946DB
:10373000384607F00FFE80454546A8BF0546294696
:10374000384606F0B9FC00F10108204601F0BCFC47
:10375000436B0690C9EB080B002B59D19946D9440D
:10376000B0F83AB009F10109CBEB090B06A801F05A
:10377000F3FDBBF1000F25DD204601F0A5FC0DF1A6
:10378000280AB0F83A904AF8080D0BF1100BD9440A
:10379000D0F834B0504601F0DFFD4946584601F0FC
:1037A000A5FC019060B3BBF1000F56D0204601F09C
:1037B0008BFC0246019BA2F83A9050465363089254
:1037C00001F0CAFD204601F07FFC0490406B01F03F
:1037D0007BFC324B059042461B6839469847059B57
:1037E0009844002308F8013C049BB3F93820DD64B9
:1037F000AA422AD005A801F0AFFD304601F0ACFD89
:1038000020460EF0BDFC06F087FD0BB0BDE8F08F42
:10381000184601F059FC0DF1280A4AF80C0DFCF786
:10382000AFFD8146504601F097FD069897E7284680
:1038300001F04AFC0AAD45F8140DFCF7A1FD00F1BA
:103840000109284601F088FD72E793F85420012A07
:1038500004BF05F1FF35DD64CCE701F035FC0AABB0
:103860000F4A43F8040D5946D2F800B002934A4675
:103870000393D847029B184601F06EFD96E7204659
:1038800001F022FC03463430049301F0F7F9049B65
:1038900030465F87DF6401F05FFDB1E7D0060020AE
:1038A000D406002000B9704730B5044683B00D46F9
:1038B00003F086FC204601F007FC019018B1056674
:1038C00020460EF05DFC01A801F046FD06F024FD47
:1038D00003B030BD00B9704770B5044682B01646DB
:1038E0000D4603F06DFC204601F0EEFB019008B19F
:1038F000022D06D901A801F02FFD06F00DFD02B042
:1039000070BD00EB85012046CE660EF039FCF1E774
:103910000A2838B514D00D28044610D003F050FC06
:10392000114B1B68DB6920461B6898470F4B1B68CF
:103930000BB120469847BDE8384006F0EDBC38BDD5
:10394000094C03F03DFC03F03BFC2368DB695D7E22
:1039500006F0E2FC23689A8C198C59842A449A84D4
:10396000BDE8384006F0D8BC9404002044CB0220C7
:103970002DE9F04F744D754E2C68174640F2C32365
:1039800087B003FB07F30246646E029286FB036076
:10399000DB17BE18C3EBA01307EBD77207FB07F8C2
:1039A00008EB620E01336468CDF814E030468946B6
:1039B0000493A0472B68029C5B6E49465B68E01B42
:1039C00098472B68CDF80C905B6E4A46BA181146A2
:1039D0005B680092204698472B68039A5B6ED11B68
:1039E0005B6820469847049B002B40F3A980012484
:1039F000AA46B9464BE0029B039A0099E718C4EB2C
:103A0000030B131B02EB040801932A68526E38461D
:103A1000526890472A680099526E584652689047FB
:103A20002A68526E41465268304690472A6801998A
:103A3000526E304652689047B9F1000F21D0DAF843
:103A40000020039B526EC9EB0301384652680F46B3
:103A50009047DAF80020526E39465846526890472F
:103A6000DAF80020029B526EC9EB03074146526808
:103A700038469047DAF800200199526E384652686D
:103A80009047049B0134A3425ADB09FB09F8059BCC
:103A900004FB04884345AEDA2A68029BDDF8008007
:103AA000526EE71841465268384690472A68029B92
:103AB000526EC4EB030B41465268584690472A6841
:103AC000039B526E04EB0308526841463046904710
:103AD0002A68039B526E1B1B30465268019319469D
:103AE0009047B9F1000F21D0DAF80020039B526E05
:103AF000C9EB03063146526838469047DAF8002091
:103B0000526E3146526858469047DAF80020029BC0
:103B1000526EC9EB03065268304641469047DAF8C8
:103B200000200199526E304652689047029B09F17D
:103B3000FF3909EB0306039B4B440093194664E7E6
:103B400007B0BDE8F08F00BF94040020D34D621091
:103B50002DE9F04F161A85B05D1A9E4656EA050308
:103B6000DDF838B078D086EAE67385EAE574A3EB31
:103B7000E673A4EBE5749C420746894632DC1C469A
:103B8000A6424FF0000301933AD06D4239464FF000
:103B9000FF33002D1746C6F100040A46F146039391
:103BA000DBF8001032D1DFF80883019BD8F800E081
:103BB0000846002B00F0CF809EF81A30002B00F052
:103BC000C181002CC0F2C581B54EAA467246013BA8
:103BD000451C032B00F23281DFE813F04A013F015C
:103BE00056011F013B4630462E4611464F46A6421F
:103BF00099464FF00103724605468E460193C4D1A3
:103C00000123002D0393DBF80010CCD0DFF8A08255
:103C1000D8F8000004EBD476827E4FEA6606B8BF7F
:103C20007642F2B9002C14DB019B002B00F051818D
:103C3000924601E0D8F80000436E96FBF4F00AEBE0
:103C400007015B6848440AF1010A984754452E442D
:103C5000F0DA05B0BDE8F08F05B0BDE8F04F00F038
:103C60007BB95A1C00F02D81002C53DBCDF8089055
:103C70004FF0000AC14698464144CBF80010827EBE
:103C8000013A032A15D8DFE802F0574B2C02854B86
:103C90004FEAE17E83FB0132CEEBA20202EB42024D
:103CA000A1EBC2020B2A12DD22F00402103A012A13
:103CB0000DD996FBF4F1029B426E1944019B002B37
:103CC00040F0F880526838469047DBF800100AF15F
:103CD000010A544507F101072E4416DBD9F800000C
:103CE000CAE76F4B4FEAE17E83FB0132CEEBE20283
:103CF00002EB8202A1EB82020B2AD7DC0AF1010A55
:103D0000544507F101072E44E8DA039A013243468D
:103D100000F0DD80CB1ACBF8003005B0BDE8F08FA5
:103D2000614A0A40002AC0F2E680012ACCBF002284
:103D30000122002ACBD1BCE75C4A01F1060E0EEA53
:103D40000202002AC0F2DC800B2ACCBF0022012232
:103D5000002ABCD1ADE79EF81A30002B00F0E980B4
:103D6000002CC0F2F680DDF804A04E4E7246013BF6
:103D7000451C032B13D8DFE803F04337210286FBF1
:103D80000031C317C3EBA10303EB4303A0EBC30351
:103D90000B2B0ADD23F00403103B012B05D9536ED6
:103DA00049465B6807EB0A0098470AF1010A544547
:103DB00014DBD8F800202846937ED8E7384B83FBE5
:103DC0000031C317C3EBE10303EB8303A0EB8303D1
:103DD0000B2BE1DC0AF1010A5445EADA691ECBF843
:103DE000001005B0BDE8F08F2F4B0340002BC0F250
:103DF0009680012BCCBF00230123002BD5D1CEE729
:103E00002A4B691D0B40002BC0F28E800B2BCCBFC0
:103E100000230123002BC8D1C1E7224B83FB0031D3
:103E2000C317C3EBA10303EB4303A0EBC3030B2BAB
:103E30000ADD23F00403103B012B05D9536E0AEB76
:103E400007015B68484698470AF1010A5445C5DBFB
:103E5000D8F800202846937EB9E6134B0340002B88
:103E600053DB012BCCBF00230123002BECD1E5E772
:103E70000E4B691D0B40002B4CDB0B2BCCBF0023E2
:103E80000123002BE0D1D9E786FB0031C317C3EB38
:103E9000E10303EB8303A0EB83030B2BCBDCD3E722
:103EA00067666666ABAAAA2A030000800F0000803E
:103EB000940400200846526839469047DBF8001009
:103EC00005E72144002CCBF80010BFF6CFAE21440B
:103ED00020E79A4601E0D8F80000436E96FBF4F123
:103EE0000AEB07005B6849440AF1010A9847544508
:103EF0002E44F0DAADE6013A62F00302013214E733
:103F0000013A62F00F0201321EE7013B63F0030346
:103F10000133A6E7013B63F00F030133ADE7013B3B
:103F200063F00303013364E7013B63F00F030133E4
:103F30006CE7DEF864301B684946384605B0BDE8DA
:103F4000F04F18473946484605B0BDE8F04F08F035
:103F50005DBC0D4642E700BF064B1B681A7E012A76
:103F600005D0013A02EBD272521000F005B85B6E38
:103F70005B681847940400202DE9F04FDFF8DCB0AF
:103F8000354EDBF80040154640F2C32202FB05F235
:103F9000034685B086FB0209606E0293D217C2EB1E
:103FA000A919EF18C5EB030805EBD57E05FB05F64F
:103FB000046806EB6E0309F101093A464046019395
:103FC0008A46A047B9F1000F42DD029A0124131975
:103FD0000293531E0393334616461AE0013DAF1970
:103FE000C5EB0608DBF800305B6E0AEB04013A46CD
:103FF0001B6840469847DBF800305B6EC4EB0A0153
:104000003A461B68404601349847A14520DB05FB32
:1040100005F3019A04FB04339A42E3DAA945DDDA99
:10402000029ADBF80030171B039A5B6E02EB040860
:10403000384642460AEB05011B689847DBF800301A
:104040005B6E424638461B68C5EB0A019847C5E7D8
:1040500005B0BDE8F08F00BFD34D6210940400207E
:104060002DE9F04F002987B01F4C40F3D582274639
:10407000054600EB810E43F6FF74B5F90260B442C9
:1040800005F10405A8BF3446B742B8BF3746AE4570
:10409000F3D10497154D2D686D696DB1B5F90660C2
:1040A000049FB5F90250F61AED1AB742A8BF374679
:1040B000AC420497B8BF2C46049DAC4200F38E81FD
:1040C000DFF82C800593934606464D1E8A46002055
:1040D000074B8245186040F37C81059BCDF80CB0FE
:1040E0002344029319E000BF01C0FFFF94040020A5
:1040F000A0C70220A6450CD0C0F27381A44500F3EE
:104100008581F44540F37881A64502DCA44580F220
:104110008281BA45384640F3EC8006EB8001A84224
:1041200000F10107ACBF0023BB00B1F902C033446A
:10413000A4450246B3F902E0DCD1A64500F03E8278
:10414000002DC8BF0021E4DD5AB1013A06EB82031D
:104150000131B3F90230A3420BD1A942D9D0002AD0
:10416000F3D12A4606EB82030131B3F90230A342B0
:10417000F3D01B1BC4EB0E0E93EA0E0F36F9202072
:1041800040F112829F4B1B680B2BC2DC002B40F3CB
:104190002B82581E410008EB010CBCF904E072456B
:1041A00000F3318208EB4309A9F804E0002800F08D
:1041B0001B82981E4FEA400908EB090EBEF904B0B5
:1041C0005A4500F38D80ACF804B0002800F00C8252
:1041D000D81E410008EB010CBCF904C0624500F395
:1041E0001482AEF804C0002800F0FE81A3F1040997
:1041F00084484FEA490B00EB0B0EBEF904C0624540
:104200006EDC4144A1F804C0B9F1000F00F0EC816C
:10421000581F410008EB010CBCF904904A4500F31B
:10422000E781AEF80490002800F0DE81981F4FEA85
:10423000400B08EB0B0EBEF904904A4550DCACF87D
:104240000490002800F0D081D81F410008EB01093C
:10425000B9F904C0624500F3CB81AEF804C0002870
:1042600000F0C281A3F1080C4FEA4C0E08EB0E00DF
:10427000B0F90400824233DCA9F80400BCF1000F5D
:1042800000F0B281A3F10900410001905D4800EB0C
:104290000109B9F904B05A4500F3BB81C64401983D
:1042A000AEF804B0002800F09F81A3F10A004FEAA5
:1042B000400C08EB0C0EBEF904B05A4510DCA9F80E
:1042C00004B0002800F09081A3F10B01490008EB35
:1042D0000100B0F90400824200F39981AEF80400B5
:1042E000484801440133BA4503608A8038463FF7A5
:1042F00014AF444BDDF80CB01B68002B69DD012BBB
:10430000B8F9040065D0404BB8F906201B68029F3D
:104310005B6E58441B685A4439469847D8F80030B9
:10432000022B56DD032BB8F9080052D0364BB8F9F2
:104330000A201B685B6E58441B685A4439469847EC
:10434000D8F80030042B44DD052BB8F90C0040D020
:104350002D4BB8F90E201B685B6E58441B685A44FD
:1043600039469847D8F80030062B32DD072BB8F9CC
:1043700010002ED0244BB8F912201B685B6E5844F5
:104380001B685A4439469847D8F80030082B20DD7E
:104390001C4A092BB2F914001BD01B4BB8F916208C
:1043A0001B685B6E58441B685A4439469847D8F8D6
:1043B00000300A2B0DDD0B2BB8F9180009D0124B79
:1043C000B8F91A201B685B6E394658441B685A447A
:1043D0009847049B0134A342BFF679AE07B0BDE80D
:1043E000F08FA445FFF695AEF44514DCA4453FF7E5
:1043F00090AEA645FFF68DAE36F92020B3F9003019
:1044000010E000BFA0C7022094040020A6453FF79B
:1044100080AEF445EADD6146B3F9002036F920307C
:10442000F4468E46991ACCEB040303FB01F3002BF0
:10443000CCEB0E0EDBBF4FEA6E0101F1FF3103EB57
:104440006E01591A764B1B680B2B3FF762AE91FB3E
:10445000FEF1002B0A44019240F3C480581E11461D
:10446000420008EB020EBEF904C0614500F3C280B1
:1044700008EB4309A9F804C0002800F0B380981E97
:104480004FEA400B08EB0B0CBCF90490494500F3D4
:104490008380AEF80490002800F0A480D81E42006B
:1044A00008EB0209B9F904E0714500F39F80ACF80C
:1044B00004E0002800F09680A3F1040C4FEA4C0EB3
:1044C00008EB0E00B0F90400814265DCA9F8040095
:1044D000BCF1000F00F086805149581F420001EBEB
:1044E00002090199B9F904B0594500F38780C6441F
:1044F000AEF804B0002875D0981F4FEA400B08EBC7
:104500000B0EBEF904C0614546DCA9F804C00028C2
:1045100068D0D81F420008EB020CBCF90490494552
:1045200064DCAEF8049000285CD0A3F108004FEAE8
:10453000400908EB090EBEF904B059452CDCACF873
:1045400004B000284ED0A3F10900420008EB020C91
:10455000BCF904C0614554DCAEF804C0002841D069
:104560002F49A3F10A004FEA400C01EB0C0E019910
:10457000BEF9049049450FDC4244A2F8049000289B
:1045800030D0A3F10B00420008EB0200B0F90400A8
:10459000814231DCAEF804002148BDF80410024429
:1045A000013391800360B4E51E4B03991B685B6E79
:1045B0000A441B68029910469847AAE536F920106C
:1045C000B3F900300398014402461818154B1B68D4
:1045D0005B6E8142B6BF02460A4608461B680299D6
:1045E000984796E50022D7E7002179E65A46D3E7B7
:1045F000594675E65A00CFE76246CDE74FEA4C02CE
:10460000CAE74A46C8E759006AE6494668E661468D
:1046100066E64FEA4C0163E6049443F6FF7439E51D
:10462000A0C702209404002038B5204B204C1D6800
:1046300002F0C6FD284608F0AFFC05F06DFE1D4BEC
:104640001D6802F0BDFD284608F0E0FC05F064FEA0
:1046500002F0B6FD236801221A7605F05DFE02F035
:10466000AFFD236800259D8505F056FE02F0A8FDEC
:1046700023685D8505F050FE02F0A2FD284608F093
:10468000DDFC05F049FE0C4B1D6802F099FD236826
:1046900005B1DD6105F040FE02F092FD23680022C5
:1046A0009A76BDE8384005F037BE00BFB4C6022098
:1046B00094040020900400208C0400202DE9F04F89
:1046C0004F4E3368DA69B3F92250D469B4F80CB0AC
:1046D00083458BB07DD8E18981427AD321680891E6
:1046E0004FF0FF31CBEB000B0791BBF1FF3F6AD0DE
:1046F000177EB3F92A80A27CB3F9249094F810A015
:1047000017FB02F34046069308F098FC3368069ABC
:104710000899099002FB0B109A6BDB6904900592D3
:10472000A27C03924FF0010BCDF808B0DA7E019223
:104730009B7E009328463B465246494607F080FE42
:10474000079801301CD048F0020008F077FC2C4A92
:10475000079812680899069B03FB0013916BD269B6
:1047600005910493A37C0393CDF808B0D37E019305
:10477000937E009352463B464946284607F060FE2A
:1047800033681F4FDB695A7E1B7E9A4214D9B8F1F9
:10479000020F11D088F0040008F050FC3B68DB6980
:1047A000187ED97E9A7E5B7E00FB01910AFB025245
:1047B0004B44284608F054F89DF8240008F03EFCCD
:1047C0003368B3F92250627C15445D840BB0BDE8B8
:1047D000F08FA1680029F6D00F88B842F3D3B1F862
:1047E00002E08645EFD34968C01B80B2676808972E
:1047F00001EB800731F920B0B7F90210079174E797
:1048000094040020044B1B68DB69DB6909B11A7C46
:104810000A60587C704700BF9404002002230B807C
:10482000704700BFC3699A898A4202D8DA898A42EE
:1048300011D2986818B10388994201D200207047BC
:1048400042888A42FAD3C91A436833F82100C04328
:10485000C0F3C03070470120704700BF2DE9F04F12
:104860003E4D2B68DA69B3F92A60D36989B043B148
:104870001A88904202D35988814205D29B68002B46
:10488000F6D109B0BDE8F08FD3F80480DFF8CC9002
:10489000841A08EBC407304697F802B008F0CEFB44
:1048A0008246286818F83420D0F81CE0D0F838C0C8
:1048B0009EF81830B0F92410B0F92200CDF814C0D9
:1048C00006934FF0010C7B680493CDF80CB0CDF843
:1048D00008C09EF81BC0CDF804C09EF81AE0069BE5
:1048E000CDF800E007F0ACFD2B68DA69537E92F852
:1048F00018B05B4523D9022E069320D0D17E0791B4
:1049000002F01EFB064602F0E5FA04F011FED9F8AB
:10491000002018F834C0D469B2F9220094F81BE0E2
:104920000799B2F92440069B0CFB0E0201FB0343DE
:1049300001FB0B4107F094FF304604F0F9FD5046AF
:1049400008F07CFB2B687978D8695A8C807E00FB54
:1049500001225A8409B0BDE8F08F00BF9404002002
:10496000114B70B41B68DD69EB6943B11A88904242
:1049700002D35C88844205D29B68002BF6D118468E
:1049800070BC70475E68AC7E821A06EBC2035B782F
:1049900013FB04F00029F3D016F8323014FB03F3B4
:1049A0000B6070BC704700BF9404002001230B8093
:1049B000704700BFC06950B103888B4202D843885A
:1049C0008B4203D280680028F6D1704701207047DF
:1049D0002DE9F047234E3368002B3FDD224D234F56
:1049E0002C68D7F80090C3EB431804EB880808F153
:1049F0000C080C344FF0000AA4F108037422184686
:104A00004946FBF77EFC221F2063A06344F80CACF0
:104A10006263E4607C34A045EED10024A04603E04C
:104A200092B13268904514DA1EF064F92B681A5975
:104A3000904203EB040108F1010804F17C04EFD17A
:104A400004313960BDE8F087086004313960BDE8A1
:104A5000F087194604313960BDE8F087024B034FF7
:104A60001968EDE7B406002020C902209404002054
:104A7000F8B5194F194B1A4E384640F80C3F06F05E
:104A80002DFE3468C4EB4414A400204600F04EF917
:104A9000144B386022461B68002198474FF0FF33C3
:104AA00073601EF02DF93368002B11DD00242546BC
:104AB00003E072B133689D420ADA1EF01BF93B68CD
:104AC0001A599042234405F1010504F17C04F0D108
:104AD000F8BD1860F8BD00BF20C9022021C601083A
:104AE000B4060020D406002009B9084670472DE915
:104AF000F0410E46054602F063FB02F061FB3046D2
:104B000010F032FB044605F007FC24B3174FFA6996
:104B10007B6B0132FA6113F83420013203F8342040
:104B200003EBC403D3F8048008F10800C5B1104BAF
:104B3000324629461B689847D8F800107A6B0B4D0F
:104B400012F83130012B03D9E86908B10138E86166
:104B5000013B02F8313005F0DFFB2046BDE8F08173
:104B6000044B324629461B689847E5E74CCA0220A9
:104B7000D0060020D406002000B9704710B50446C6
:104B800002F01EFB204610F0EFFA044605F0C4FBCD
:104B9000204610BD70B5054602F012FB25B9002471
:104BA00005F0BAFB204670BD02F00AFB284610F063
:104BB000DBFA044605F0B0FB002CF0D0144E15498A
:104BC000F269736B0132F26113F83420013203F899
:104BD000342003EBC4032A465D680B6805F1080026
:104BE000002198472968726B12F83130012B01D9E6
:104BF000F06930B9013B02F8313005F08DFB2046F9
:104C000070BD0138013BF06102F83130F5E700BFBB
:104C10004CCA0220D4060020024B21F0030183E895
:104C200003007047A0C6022000B9704770B50D4C54
:104C3000054602F0C5FA636BEE00334459684868D4
:104C40000FF0C8FC626B6368616A16440133002090
:104C50006360716002F835006562BDE8704005F080
:104C60005BBB00BF4CCA022028B1034AD36B036070
:104C700003B15860D06370474CCA0220F8B50546AE
:104C800002F09EFA2C68B4B10E4E02F099FA736BE2
:104C9000E7003B44596848680FF09CFC716B7368EF
:104CA000726A0F440133002073607A6001F83400A7
:104CB000746205F031FB00232B60BDE8F84005F07D
:104CC0002BBB00BF4CCA022000292BDD2DE9F04789
:104CD0000025154F8A46041FA94602F071FA54F8C0
:104CE000046F0135B6B102F06BFA7B6B4FEAC60870
:104CF0004344596848680FF06DFC796B7B687A6AA9
:104D0000884401337B60C8F8042001F836907E6245
:104D100005F002FBC4F8009005F0FEFAAA45DCD1CC
:104D2000BDE8F087704700BF4CCA0220F8B5894E35
:104D300096F828300446002B2FD00334356CF26BE4
:104D400024F003040434A54238BF254662B152F86A
:104D5000043C9D42144604D114E054F8043C9D42A6
:104D600010D02468002CF8D1F368B46B1C4454F8BC
:104D7000041C611A0B68002B65D14B689D426CDDE9
:104D8000002408E023680BB161685960616801B1D3
:104D90000B60A24253D02046F8BD6F4B9A6858680A
:104DA000012186F828100AB982089A605A253562CE
:104DB00010272022402519683764B26435658027A2
:104DC0004FF480724FF40075B7653266B5664FF4E4
:104DD00080674FF400624FF48055A1F114033767E8
:104DE000B267C6F880504FF400574FF480424FF43A
:104DF00000450344C6F88870C6F89020C6F898505D
:104E00004FF480374FF400324FF48025C6F8A0707D
:104E1000C6F8A820C6F8B050022201254FF400279A
:104E2000B16373633261F060C6F8B8705D6075623B
:104E300075600FF0CFFB14F03FFE35637DE723680C
:104E4000F3632046F8BD002018F088F854F8041CDD
:104E5000611A0B68002B93D18FE7D6F8B8703D4AE2
:104E6000581B041DBB420C4472D2D2F8B070BB4236
:104E70006CD2D2F8A870BB4266D2D2F8A070BB4206
:104E800060D2D2F898709F425AD9D2F89070BB4243
:104E900054D2D2F88870BB424ED2D2F88070BB4256
:104EA00048D2926F934243D2376F2A4ABB423DD2D7
:104EB000976EBB4238D2176EBB4233D2976DBB425E
:104EC0002ED2176DBB4229D2976CBB4224D2126CF2
:104ED00093420CD2F2687369521B2B44F2607361E7
:104EE00010B944F8045C56E70FF074FBF9E70022B0
:104EF0003768D1F808E0FB1A3360CB68BEF1000FC9
:104F000001D0CEF8043013B1C3F800E0E2E706EBBD
:104F1000C202C2F844E0DDE70122E9E70222E7E746
:104F20000322E5E70422E3E70522E1E70622DFE7C3
:104F30000722DDE70822DBE70922D9E70A22D7E7C3
:104F40000B22D5E70C22D3E70D22D1E70E22CFE7C3
:104F50000F22CDE74CCA0220A0C60220F8B54A4C69
:104F600094F82830002B3DD0D4F8BC30464A3BBBE7
:104F7000D2F8B43023BBD2F8AC300BBBD2F8A4309B
:104F8000F3B9D2F89C30DBB9D2F89430C3B9D2F877
:104F90008C30ABB9D2F8843093B9D36F83B9536FE7
:104FA00073B9E36E63B9536E53B9D36D43B9536D9F
:104FB00033B9D36C23B9536C13B96FF00B00F8BD40
:104FC0009B68002BF9D0002201E09B6843B159682F
:104FD0009B689142104684BF0A461046002BF4D1CC
:104FE0000C38F8BD294B9A685868012184F82810BC
:104FF0000AB982089A601968A1635A2610222025EE
:1050000026622264A564402780264FF480724FF404
:105010000075A1F114032765A6652266A5664FF405
:1050200080674FF400664FF480524FF400550344FC
:105030002767A667C4F88020C4F888504FF48047DB
:105040004FF400464FF480324FF40035C4F89070AE
:10505000C4F89860C4F8A020C4F8A8500222012522
:105060004FF480274FF4002663632261E060C4F8A8
:10507000B070C4F8B8605D60656265600FF0AAFA50
:1050800014F01AFD25636FE74CCA0220A0C6022067
:10509000024B18680C3820EAE07070474CCA0220B6
:1050A000024BD8681B68C01A704700BF4CCA022068
:1050B00030B1044B5B6B03EBC000436858680C389D
:1050C000704700BF4CCA0220074AD169536B0131B7
:1050D000D16113F83020013203F8302003EBC00314
:1050E00058680830704700BF4CCA022009B9002038
:1050F00070472DE9F8430F46064602F061F838463E
:1051000010F032F8054605F007F9002D65D0002EA5
:105110005AD0334C636B4FEAC60843445B68596806
:105120000C398F42A8BF0F4602F04AF8636BE26960
:1051300013F835002B49013003F8350003EBC500A7
:105140000232D0F80490E26113F83620013203F8FD
:10515000362043443A465F680B6809F1080007F1BE
:1051600008019847D9F80010636B13F83120012A21
:1051700001D9E06970BB013A03F83120396813F8AE
:105180003120012A02D9E069154F00BB013A03F82A
:10519000312002F015F8636B4344002759684868D2
:1051A0000FF018FA606B6268616A00EB0803013265
:1051B0006260596000F83670666205F0ADF805F07F
:1051C000ABF82846BDE8F8832846BDE8F8830138E7
:1051D000F861DBE70138E061CDE70020BDE8F88346
:1051E0004CCA0220D0060020F8B5584C01F0E8FF68
:1051F00094F82830002B57D0D4F8BC30534A9BBBCE
:10520000D2F8B43083BBD2F8AC306BBBD2F8A43048
:1052100053BBD2F89C303BBBD2F8943023BBD2F8BE
:105220008C300BBBD2F88430F3B9D36FE3B9536F32
:10523000D3B9E36EC3B9536EB3B9D36DA3B9536D8C
:1052400093B9D36C83B9536C73B96FF00B034049B6
:10525000DA1781FB0313C2EB6313246A04FB03F424
:1052600005F05AF82046F8BD9B68002BF5D00022C7
:1052700001E09B6843B159689B689142104684BF26
:105280000A461046002BF4D10C38B0F5800F0346C7
:10529000DDD8226A2E4B02FB00F0A3FB00235C0941
:1052A00005F03AF82046F8BD2A4B9A685868012163
:1052B00084F828100AB982089A601968A1635A26EE
:1052C0001022202526622264A564402780264FF400
:1052D00080724FF40075A1F114032765A66522665C
:1052E000A5664FF480674FF400664FF480524FF488
:1052F000005503442767A667C4F88020C4F8885087
:105300004FF480474FF400464FF480324FF400359D
:10531000C4F89070C4F89860C4F8A020C4F8A850ED
:10532000022201254FF480274FF400266363226197
:10533000E060C4F8B070C4F8B8605D606562656034
:105340000FF048F914F0B8FB256355E74CCA02206A
:105350001F85EB51A0C6022030B403680A4A53F8F7
:10536000085C0446506B10F83530012B03D9D16925
:1053700009B10139D161013B00F8353000221046F6
:10538000226030BC704700BF4CCA0220034B5B6BED
:1053900003EBC00040680830704700BF4CCA0220D1
:1053A000A0B32DE9F041044682B008467ABB154609
:1053B0002046FFF789FE02AE078846F8080DD0F8B0
:1053C00004803046FFF7C8FF791C40468900FFF78C
:1053D0008DFE804660B3FFF777FE02AB43F8040D05
:1053E00040F827501846FFF7B7FF2046FFF76CFE3E
:1053F0000288009003460132C0F8048030461A80CB
:10540000FFF7AAFF002002B0BDE8F0817047114607
:10541000FFF76AFB05460028CAD12046FFF754FE75
:1054200002AB43F8080D1846FFF796FF0120EAE7A4
:105430002846FFF7F9FB0120E5E700BF0820FFF74A
:10544000A9BB00BF00B9704730B583B00546FFF770
:105450003BFE0090406838B96846FFF77DFF28465C
:10546000FFF7E2FB03B030BDFFF72EFE009B01907B
:105470001B885BB1002400E0019800EB8400FFF77B
:10548000FDFB009B1B880134A342F5DC01A8FFF75C
:1054900063FF00980430FFF7F1FB009B00221A80A5
:1054A000DAE700BF10B582B018B90446204602B052
:1054B00010BDFFF709FE02AB048843F8040D18463F
:1054C000FFF74AFF204602B010BD00BF10B582B002
:1054D00018B90446204602B010BD0C46FFF7F4FD93
:1054E000038800909C4206D300246846FFF734FFEF
:1054F000204602B010BD406808B90446F5E7FFF742
:10550000E3FD02AB50F8244043F8040D1846FFF7C2
:1055100023FFEAE710B582B008B30C46FFF7D4FDCD
:10552000038800909C4206D300246846FFF714FFCE
:10553000204602B010BD40680028F5D0FFF7C4FD3A
:1055400002AB50F8244043F8040D1846FFF704FF5F
:10555000002CE9D02046FFF7B7FD0446E5E70446F6
:10556000204602B010BD00BF2DE9F0470E4682B0C4
:105570008C008146424F01F023FE304601F0ECFCE6
:10558000A31907EB83033A68D3F80480824672B309
:10559000BAF1000F36D1A51907EB8505012368691B
:1055A000C5F804902B72002864D1B9F1000F18D00F
:1055B000344407EB840499E80300E368D9F80870E1
:1055C00022690125591AD21B0095334603F064FE67
:1055D0006061304601F0C0FC002839D1237A002BED
:1055E0003FD104F099FE404602B0BDE8F08738464E
:1055F000244B40F82C3F01233B6006F06FF8BAF1D2
:10560000000FC8D0504603F0D9FE05464FF07F404A
:1056100003F082FF00F0DCF800221146D9F8000008
:1056200000F0BEFDD9F8003034445A88198807EBE1
:105630008404504603F0CCFF28460125C4F80490AA
:10564000257203F0BBFE304601F086FC0028C5D071
:10565000294603F0CDFF04F05FFE404602B0BDE8EE
:10566000F087606903F0E4FD04F056FE404602B0A6
:10567000BDE8F08703F038FAC5F814A095E700BF3D
:1056800054C702202DC501082DE9F04114460646F5
:10569000884601F095FD204601F05EFCE8B9A700C0
:1056A0001B4D3B1905EB8303DA68B24206D11B6937
:1056B000434503D1BDE8F04104F02EBE3B1905EB94
:1056C00083035869D0B93C4405EB8404E660C4F810
:1056D0001080BDE8F04104F01FBE0D4B04EB8404C4
:1056E00003EB840463689A685968C2EB0802711A74
:1056F00003F05EFFBDE8F04104F00EBE5B689A68FF
:105700005968C2EB0802711A03F01EFADBE700BF0A
:1057100054C7022070B5174B1B685D7C01F050FD2B
:10572000154B05EB850403EB8404012663682672A0
:10573000BBB1284601F010FC60B9237A1BB9BDE863
:10574000704004F0E9BD606903F072FDBDE870408F
:1057500004F0E2BD314603F04BFFBDE8704004F0B9
:10576000DBBD29460548FFF7FFFEBDE8704004F0A9
:10577000D3BD00BF9404002054C70220B4790B08A5
:10578000C3B2CAB29A1A92B230B415B2002DBCBFDD
:10579000524215B2C0F30723C1F307229B1A9BB2F2
:1057A000090C1AB2C1EB1041002A89B20CB2BCBF7D
:1057B0005B421AB2002CBCBF49420CB202FB02F29F
:1057C00005FB0520A1B201FB010030BC704700BF02
:1057D0002DE9F041002182B0084601F063FC01F0A0
:1057E000EFFC042007F02AFC174BDB68DD6C1C6D16
:1057F000A5F57F57A4F57F5605F57F5504F57F5431
:1058000080463F3F3F353F3E3F346846ADF800702D
:10581000ADF80450ADF80260ADF806400EF052F855
:1058200048B123462A463146384607F019F80DF0AC
:10583000E5FE0028F5D1404607F000FC04F06CFDC1
:1058400002B0BDE8F08100BF880400202DE9F041DE
:1058500082B016461C4607460D4601F0B1FC0420F6
:1058600007F0ECFB134BDB68DA6C1B6D80461744CA
:1058700016441D441C446846ADF80070ADF8046041
:10588000ADF80250ADF806400EF01CF848B12346C2
:1058900032462946384606F0E3FF0DF0AFFE0028F9
:1058A000F5D1404607F0CAFB04F036FD02B0BDE872
:1058B000F08100BF880400202DE9F04182B0B0F9EA
:1058C0000070B0F90260B0F90450B0F9064001F080
:1058D00077FC042007F0B2FB134BDB68DA6C1B6D1E
:1058E0008046174415441E441C446846ADF80070B9
:1058F000ADF80450ADF80260ADF806400DF0E2FFDF
:1059000048B123462A463146384606F0A9FF0DF035
:1059100075FE0028F5D1404607F090FB04F0FCFC32
:1059200002B0BDE8F08100BF880400202DE9F047F7
:10593000044682B00D461646002B38D09A46009693
:1059400026680B9B0A9A51462046B047074618B96D
:10595000384602B0BDE8F0870BF0B8FC618A80469B
:1059600038460AF081FC38460DF01EFC013D4046E9
:105970000DF01AFC002DC8BF4FF0000904DC1AE03E
:105980000DF012FC013D16D054F81C6FCDF80090BC
:10599000002320461A464146B04706460028EFD16C
:1059A00038460BF0ADF9304602B0BDE8F0870BF099
:1059B0009BFC8246C3E740461D210DF063F9BAF116
:1059C000FF3FC5D001F0FCFB0BF014FD60B9BA45F8
:1059D00002D038460DF018FA04F09EFC384602B0AA
:1059E000BDE8F0870028F4D0FFF7D0FC806987423B
:1059F000F8D1F1E780B582B000AF7860054B1B6845
:105A0000002B03D0034B1B687868984700BF08370A
:105A1000BD4680BD0CCB0220012B12DCF8B506463A
:105A20001C2017460C461D46FFF780F9B8B154B14B
:105A300004610023836085618782C66003604360E0
:105A4000F8BD00207047074B53F825200AB9F0E74E
:105A50001A461368002BFBD113690361E9E70020A4
:105A6000F8BD00BF30CB0220012B3BDC2DE9F84311
:105A700081461C2090460F461E46FFF757F9054603
:105A800000287FD0414A002F31D00023DFF804E105
:105A900052F8264003609EF8001007618E4286612E
:105AA000A0F81480C0F80C904360836002DB731C84
:105AB0008EF80030002C5DD021464C68002CFBD1C4
:105AC000D9F80000CB681B6883422CDD09680029E7
:105AD000F8D148B92E4B16361A68284642F8265097
